:020000041000EA
:1000000000B5324B212058609868022188439860DF
:10001000D860186158612E4B002199600221596106
:100020000121F02299502B49196001219960352056
:1000300000F044F80222904214D00621196600F024
:1000400034F8196E01211966002018661A6600F04E
:100050002CF8196E196E196E052000F02FF8012189
:100060000842F9D1002199601B49196000215960AB
:100070001A491B48016001219960EB211966A021F2
:10008000196600F012F800219960164914480160C1
:100090000121996001BC002800D000471248134993
:1000A000086003C880F30888084703B5996A0420EC
:1000B0000142FBD001200142F8D103BD02B5186610
:1000C0001866FFF7F2FF186E186E02BD00000240BE
:1000D000000000180000070000035F00212200005C
:1000E000F4000018222000A00001001008ED00E03C
:1000F00000000000000000000000000074B24E7A12
:1001000000200420F7010010CB010010CD010010E9
:10011000C9010010C9010010C9010010C901001077
:10012000C9010010C9010010C9010010CF01001061
:10013000C9010010C9010010D1010010D301001045
:10014000C1010010C1010010C1010010C101001067
:10015000C1010010C1010010C1010010C101001057
:10016000C1010010C1010010C1010010C101001047
:10017000C1010010C1010010C1010010C101001037
:10018000C1010010C1010010C1010010C101001027
:10019000C1010010C1010010C1010010C101001017
:1001A000C1010010C1010010C1010010C101001007
:1001B000C1010010C1010010C1010010C1010010F7
:1001C000EFF30580103800BE00BE00BE00BE00BECA
:1001D00000BE00BEF2EB88711C3B0010383B0010E3
:1001E0003802001090A31AE71E481F49086006C88D
:1001F00081F3088810471D480068002801D019487D
:10020000F3E70DA40ECC002902D000F012F8F9E7B4
:100210001749184A002000E001C19142FCD116495B
:100220008847164988471649884700BEFDE701C937
:1002300001C29A42FBD37047383B0010C000002037
:100240009C0C002014470010000004200000042033
:1002500014470010001004200010042000000000CB
:10026000704700000000000008ED00E0000000D032
:100270009C0C00205C130020992C0010D913001056
:10028000912C0010F8B5C046044B10B5002B03D0DC
:100290000349044800E000BF10BDC0460000000054
:1002A00020120020003A0010A4230821134A70B540
:1002B0001348D150134A066814681568A31BFF241D
:1002C000A343711BCE1806600F481B0A056819046A
:1002D00069400E0C0D4935040D4E0D6035685368AC
:1002E00052685B1BA343AC1AE518356000681E0218
:1002F000330C43401A04140C0C6070BD0000054020
:10030000480F0020E80B0020480005404810054039
:100310004C0F0020F8B54746CE46F4231C250400B8
:1003200080B59527D822C05AFF35635D01B23D01E3
:100330008846A658675D002B04D16B48215C814636
:10034000002954D05A425341674AA354012F00D187
:1003500072E0022F6AD0002F55D0644BE358802200
:100360006349D5006650AE4258DBC02001018E4281
:1003700000DB9FE05F4AA5582800A43041004046BA
:1003800062189080EB1A03D58021CA00944663441A
:1003900040465949A4338A1B504302005B00E018D1
:1003A0000423C35E7343D018544A904200DD7DE0BD
:1003B000534B984200DA7BE002F072FA01B2D2208D
:1003C0000135EA17930D2152ED1802302152A9058B
:1003D000880DC21A474B4B4DE25060594A490130D3
:1003E00088422FDC6051C0BCB946B046F8BD781CCD
:1003F000032102F055FA012761554D466755012941
:100400001AD0022912D050208022384D384960512C
:10041000002750236650D500AE42A6DA3B4801685B
:10042000CA433B491504280C0860A3E796222F4FC6
:100430005300E351022792E778212C4801277823C3
:1004400021508CE70022334962510C68324A230460
:100450001D0C15600868040C2304304C13602568DB
:100460002804030C2E48036025682B0C1D04274B21
:10047000056098461D682B04254D1B0C2B604346D8
:100480001B681B0C1B042B60002F1BD0012F1FD0DF
:10049000022F23D0FA22D3009E42A4DD1F4E204D0E
:1004A0003768F9430C0C200428609CE71D4986E757
:1004B0001D4984E7154A1568E843154D010C0A04E7
:1004C0002A6057E70968CC432004050C1560E1E772
:1004D0000868C5432B0C1F041760DBE72768F94346
:1004E0000A04140C0460D5E7520900005409000006
:1004F000580900004C090000FF0F0000FFF77F00C3
:1005000002F87FFF5C090000DF2E00009800054024
:1005100098100540700005407010054084000540AB
:1005200084100540FF07000000F8FFFF10B5024BE4
:10053000186803F039FA10BD200F002070B5D025DF
:1005400001220021072000F099FF0122002106204E
:1005500000F094FF0122002105202D0600F08EFFFF
:100560000120002101F0FAFD6A686C686B68600682
:100570009B06C10FD80F8C0012060101D30F072074
:1005800000220C4301211C4300F078FF00220121CE
:10059000062000F073FF00220121052000F06EFF0D
:1005A0000120002101F0DAFD68686A6801066D68C3
:1005B000CB0F52065800D10F64B2AD06CB000443F6
:1005C000E80F1C434201002107201443012200F0E0
:1005D00055FF01220021062000F050FF64B20122E5
:1005E0000021052000F04AFF2A2C05D0302C03D032
:1005F000FF200C2C00D070BDE0B2FCE7F0B54E46F9
:10060000DE465746454603008C46E0B563441C79F8
:1006100085B00200A14601900291002C00D132E287
:1006200090468900039161440F01B84443460C2071
:10063000185602F049FADF4902F00FFA4546041C49
:10064000A86802F041FA211C051C201C02F005FAE2
:10065000211C061C281C02F000FA4946071C01292F
:1006600000D1A9E142461423D05602F02DFAD14917
:1006700002F0F3F982464046006902F025FA51463D
:100680008346201C02F0D2F95946041C281C02F0B3
:10069000CDF95146051C504602F0DFF9011C301C13
:1006A00002F0C4F95946061C504602F0D6F9011C66
:1006B000381C02F0BBF94946071C022900D17BE136
:1006C00042461C23D05602F0FFF9BA4902F0C5F9A0
:1006D00082464046806902F0F7F951468346201C65
:1006E00002F0A4F95946041C281C02F09FF9514657
:1006F000051C504602F0B1F9011C301C02F096F9BD
:100700005946061C504602F0A8F9011C381C02F09C
:100710008DF94946071C032900D14DE143460022CB
:100720002433985602F0D0F9A24902F096F9824695
:100730004046006A02F0C8F951468346201C02F088
:1007400075F95946041C281C02F070F95146051C25
:10075000504602F082F9011C301C02F067F959463C
:10076000061C504602F079F9011C381C02F05EF9B3
:100770004946071C042900D11EE1434600222C33C0
:10078000985602F0A1F98B4902F067F9824640467B
:10079000806A02F099F951468346201C02F046F91E
:1007A0005946041C281C02F041F95146051C5046CC
:1007B00002F053F9011C301C02F038F95946061CAE
:1007C000504602F04AF9011C381C02F02FF9494644
:1007D000071C052900D1EFE0434600223433985628
:1007E00002F072F9734902F038F982464046006B14
:1007F00002F06AF951468346201C02F017F9594667
:10080000041C281C02F012F95146051C504602F047
:1008100024F9011C301C02F009F95946061C504607
:1008200002F01BF9011C381C02F000F94946071CB4
:10083000062900D1C0E0434600223C33985602F01E
:1008400043F95C4902F009F982464046806B02F0A8
:100850003BF951468346201C02F0E8F85946041C37
:10086000281C02F0E3F85146051C504602F0F5F84A
:10087000011C301C02F0DAF85946061C504602F002
:10088000ECF8011C381C02F0D1F84946071C072976
:1008900000D191E0434600224433985602F014F907
:1008A000444902F0DAF882464046006C02F00CF946
:1008B00051468346201C02F0B9F85946041C281CF6
:1008C00002F0B4F85146051C504602F0C6F8011C6F
:1008D000301C02F0ABF85946061C504602F0BDF839
:1008E000011C381C02F0A2F84946071C082963D0F5
:1008F000434600224C33985602F0E6F82D4902F0A8
:10090000ACF882464046806C02F0DEF851468046E4
:10091000201C02F08BF84146041C281C02F086F8CB
:100920005146051C504602F098F8011C301C02F09C
:100930007DF84146061C504602F08FF8011C381C19
:1009400002F074F84946071C092935D0029A01992A
:1009500094468B46039B63441801834454235A46B0
:10096000D05602F0B1F8134902F077F882465846A3
:10097000006D02F0A9F851468046201C02F056F89E
:100980004146041C281C02F051F85146051C5046F3
:1009900002F063F8011C301C02F048F84146061CC6
:1009A000504602F05AF8011C381C02F03FF8071CB0
:1009B00002E0C046CDCCCC3D484602F085F8311C63
:1009C000814602F04AF8211C061C201C02F045F862
:1009D000011C301C02F027F80021061C02F06CF804
:1009E000002842D1391C484602F037F8211C071C68
:1009F000281C02F032F8011C381C02F014F8311CDB
:100A000002F017F8211C061C02F027F8011C281C14
:100A100002F009F8494602F00CF81D49051C301C8B
:100A200002F01BF8FC22910502F000F802F06EF8CB
:100A30008146FC208105281C01F0F8FF02F066F8D1
:100A40000199029C8C46230163441F00A8373E6035
:100A50007D604E46B0255E510435585105B0F0BC5E
:100A6000BB46B246A946A046F0BD4946281C01F047
:100A7000E0FFFC218905051C01F0D8FF02F046F8D3
:100A800000239946DCE700200026024DD8E7C04647
:100A9000ABAAAA3F0000C07FF0B5DE4645465746E8
:100AA0004E468346E0B5EC250024030014225E4642
:100AB0009FB05E4905735E48196198601C751A778E
:100AC0005C4B5F46B3615C26BD55B86564203C5401
:100AD00039666C217A54BB66FF2704AB9C460F2510
:100AE000B846554E65441C742F700123009408AA23
:100AF0001C39300002F068FE01232A0050210094C6
:100B0000300002F06DFE43462F7804A92B70FE3BA7
:100B10000B7408AA50210094300002F055FE012306
:100B20002A0000945021300002F05AFE2C78434BEA
:100B30003A0222439A4200D0A8E104AA9246002138
:100B40000E24FF2308A88146049058465444884642
:100B50009A4600270590424651462A70217001238B
:100B60002A0050213000009702F02EFE01232200BF
:100B700050213000009702F033FE484623784A4661
:100B800001210370534641440132237029708B4682
:100B900001235021039230002A00009702F014FE36
:100BA0000123220050213000009702F019FE49462F
:100BB00022785B464A705246581C227028700123E6
:100BC0002A0050213000009702F0FEFD0123220090
:100BD00050213000009702F003FE40465246217833
:100BE000039B033059702270287001232A00502182
:100BF0003000009702F0E8FD012322005021300070
:100C0000009702F0EDFD04208446E0444B46424646
:100C10002178E144D970582A9DD1059E084B08AC33
:100C2000B246049D1E00074F563435E050FC0300C9
:100C3000344E050040A90200800C0020D1070000BE
:100C4000FFFF0000211000007600B3B218B20028A8
:100C50002EDB5A0096B231B200292FDB700082B22F
:100C600013B2002B30DB510088B206B2002E31DB0C
:100C7000430098B202B2002A32DB4600B3B219B286
:100C8000002933DB5A0096B230B2002834DB710001
:100C900001358EB2AC4235D029780802464032B2D6
:100CA000002AD1DA510079408BB218B20028D0DA8C
:100CB00043007B409EB231B20029CFDA4E007E4025
:100CC000B2B213B2002BCEDA5A007A4090B206B21A
:100CD000002ECDDA7100794088B202B2002ACCDA57
:100CE0005000784083B219B20029CBDA4B007B4028
:100CF0009EB230B20028CADA42007A40013596B27C
:100D0000AC42C9D11023562404AFF818015B35005A
:100D10004ABA96B2AE4200D0B8E004232420554629
:100D2000534400279846814609AC083511AE414628
:100D30002378CB55002B00D19AE0E278A1781004FB
:100D40000A06104361792279084311026278084348
:100D50002A712860012B00D18AE0207AE17902040F
:100D600008060243A17A607A0A430102A0790A4385
:100D70002873AA60022B7BD0227B617B10060A04B9
:100D80001043E17BA27B08431102E27A08432A75F3
:100D90002861032B6CD0607CA17C0206080402430E
:100DA000217DE07C0A430102207C0A432877AA6166
:100DB000042B5DD0E17DA27D08041206617E024312
:100DC000207E0A43010248460A43617D29542A6273
:100DD000052B4DD0217FE27E08041206A17F02433D
:100DE000607F0A4301020A432C21A07E6854AA6254
:100DF000062B3DD07078327801041206F0780A4351
:100E0000B1780243080234210243E07F68542A6328
:100E1000072B2DD0B079727901041206307A0A437B
:100E2000F179024308023C21024330796854AA63F5
:100E3000082B1DD0F07AB27A01041206707B0A43A7
:100E4000317B0243080244210243707A68542A64C9
:100E5000092B0DD0327CF37B1104727C18060843F9
:100E600011024C22B37C1843B37B0843AB54A864F3
:100E700039005046FFF7C2FB781C29340127503552
:100E80002936022800D052E7002000E001201FB0E0
:100E9000F0BCBB46B246A946A046F0BDF0B5DE4662
:100EA0004E4657464546E0B58D4B060085B01022AC
:100EB00003600021D83001F0BDFE0020E822B052CE
:100EC0000232B05230000021E23AEC3001F0B2FEC2
:100ED0008021F4220024F82730000D01B55202329F
:100EE000B5520021F455DE3AFC3001F0A3FE30008B
:100EF000153006220021FF3001F09CFEA5221E20A5
:100F000008215300E022774D774FFF30F4543454DA
:100F100029603B68D001754903408D250B6016237D
:100F200018221A206F00F455FF33063FF455FF32A4
:100F3000F4540133F4546E49B454FF300132B454C4
:100F4000345400240A27012589466A4B03960293EC
:100F50000094042138007C1C00F076FA0421200063
:100F600000F072FA2A0049463A4050424140630874
:100F70007E0801911F2F5BD807275F493E408846B6
:100F8000B2009619B2005D49904446468846BB4679
:100F900000275B495B488A46101890440760376019
:100FA00046469244376049465646316010264660B0
:100FB000B2460560202C00D1ECE1594619408B0067
:100FC0005E18B0004F4EB4468444664637604A4EC1
:100FD000B34683445E463760484EB34683445E461C
:100FE0003760474F4E46BB465844066057466046FA
:100FF000476005604046444F5918B8468B00424947
:101000004F468A46066801984244304010603B4A89
:101010002C409E183068009A64427C402040534423
:10102000023218600092062A70D0029EB75C90E7E8
:10103000032232400826B046324997008C46B81841
:1010400090440022870067449836BA51464693463A
:10105000B2009119284E8800B2468244594656463D
:101060003160264EB44684445E4661460E60244993
:101070004E468B46584406601021A42039509031CA
:101080007D500320184083001F1801001D480023D5
:101090008446BE00B4446746A020174E9A46B34625
:1010A00008313B508B005F18BF00BB445E46504682
:1010B0003060124E4244B346BB4456465846066022
:1010C0000F484E468246102057443E600600A42733
:1010D0006046C651094F903692008551D0198AE773
:1010E000083A001000F0044000C0044000D0044062
:1010F000FFFF0000183A0010080005400C000540F2
:1011000010000540000005400C100540039E01F052
:10111000F7FF1F211B2000F097F9002200211B2060
:1011200000F0ACF900211B2000F0BCF91F211A20AF
:1011300000F08AF9002200211A2000F09FF9002116
:101140001A2000F0AFF91F211C2000F07DF90022C9
:1011500000211C2000F092F900211C2000F0A2F9CF
:101160001F211D2000F070F9002200211D2000F039
:1011700085F900211D2000F095F9182000F0A6F94E
:10118000192000F0A3F98021D02380201C068A04B6
:10119000470467620820626200F098F98023802784
:1011A000580060626061092000F090F9B900616246
:1011B0000220616100F08AF904220121A26202206A
:1011C000002200F05BF9032000F080F90823734F40
:1011D000A36200220121032000F050F93800704979
:1011E00002F0F6F802216F4A786811600F223F681A
:1011F0006D4B084057408946C0326C493A400A60FE
:1012000018600121122000F01FF90121132000F0C5
:101210001BF90121152000F017F90421172000F017
:1012200013F90421162000F00FF910270022802363
:101230005F486049C26342648264C1640764C563F5
:10124000C26342648264C1640764C5635A48D904B6
:10125000026851400A0C80211304584A1360006848
:10126000CB0043401804010C1160072000F02EF958
:10127000062000F02BF9052000F028F98022A26258
:10128000403AA262203AA262142000F01FF9002224
:101290000021142000F0F2F8042000F017F9676232
:1012A0004749A761474802F067FA0321102000F080
:1012B000CBF80321112000F0C7F8002000F006F958
:1012C0006562012000F002F94B4630006362FFF7CF
:1012D00035F9D02430553000FFF7DEFB45400120C2
:1012E00028408F256900705456398B46B3445846C0
:1012F00001F0E8FE5A46344C344D0437106851680A
:10130000334A344B01F072FB314A324B00196941C8
:1013100001F06CFB2E4A2F4B0019694101F066FB6E
:101320002B4A2C4B0019694101F060FB284A294BDC
:101330000019694101F05AFB254A264B0019694101
:1013400001F054FB224A234B0019694101F04EFB86
:101350001F4A204B0019694101F048FB1C4A1D4BF4
:101360000019694101F042FB194A00196941194B02
:1013700001F03CFB0A3F00196941002FC0D15F46D4
:1013800038607960300005B0F0BCBB46B246A94673
:10139000A046F0BD5A46D846153272E600C003405A
:1013A000286BEE0004F0034004E0034000D003404B
:1013B00000000540FF0700004800054048100540B8
:1013C000A0860100800C00204F8167F77E7B05140A
:1013D0002D7F954C2DF4515810B5134CA5446846FB
:1013E000FFF75CFD6C460021104B00200093104B72
:1013F000104AE1546421A0500432A0520E4A0F4B0F
:10140000A1500F49553AFF3A6050002153A8E250CD
:1014100001F010FC0B480460684602F0BDFA0020A1
:1014200096242401A54410BDA0F6FFFF143A001035
:10143000520900004C09000054090000580900003E
:101440005C090000200F0020094A830010B59C1899
:1014500040222468C000544080322240054CA446FB
:1014600063441A60044B9C466044416010BDC04612
:1014700004C0014004D0014000400140074B8000FF
:10148000C3181B68C90092000A435A400C2313403A
:10149000034A9446604403607047C04604C001405C
:1014A00004D001408000002905D0064A402394461C
:1014B000604403607047044B40219C4660440160D7
:1014C000F8E7C04604E0014004F001400123D022C7
:1014D000834011060A4A8B628B618300991840226F
:1014E0000968C000514080320A4006498C46634476
:1014F0001A60054B05229C46604442607047C04616
:1015000004C0014004D00140004001400FB400B5C8
:10151000084883B001F0B4FD049B002B07D005A957
:101520001800019101F09AFB034801F0A9FD012088
:1015300001F0ACFB203A0010303A001070B5EFF328
:10154000108C72B60D4D2B68002BFCD0BFF35F8F53
:10155000CC080619005D072401230C40A3401C00A1
:101560000440034207D118433070BFF35F8F2C60F3
:101570008CF3108870BD1000FFF7C8FF2C0100D05D
:10158000F0B5D64646464F468846C0B59A46EFF374
:10159000108972B6724C2368002BFCD0BFF35F8FAA
:1015A000524500D9CDE0554607260127AC1A3440F4
:1015B000D108A4463400455C431839001440A140CA
:1015C000294200D1A9E00132924500D2B6E063463B
:1015D000002B55D0012B47D0022B3BD0032B2FD013
:1015E000042B23D0052B17D0062B0AD0340039004A
:1015F0001440A140D5084319455D294200D18CE033
:101600000132340039001440A140D5084319455D2A
:10161000294200D181E00132340039001440A14058
:10162000D5084319455D294277D00132340039008D
:101630001440A140D5084319455D29426DD00132BF
:10164000340039001440A140D5084319455D2942B2
:1016500063D00132340039001440A140D508431949
:10166000455D294259D00132340039001440A1406F
:10167000D5084319455D29424FD0013292455DD3CB
:10168000340039001440A140D5084319455D294272
:1016900043D03400390001321440A140D508431929
:1016A000455D9446294238D0340039000132144057
:1016B000A140D5084319455D29422ED06346340028
:1016C00039009A1C1440A140D5084319455D2942B0
:1016D00023D062463400390003321440A140D508BB
:1016E0004319455D294218D06346340039001A1D5C
:1016F0001440A140D5084319455D29420DD06246EA
:101700003400390005321440A140D5084319455D25
:10171000294202D063469A1DA6E71000294319709A
:10172000BFF35F8F00270E4E376089F310880028C3
:101730000FDBE0BCBA46B146A846F0BD01225042DC
:10174000EEE7BFF35F8F0020206089F3108801214E
:1017500048424246002AECD00898FFF7D7FEC04620
:101760002C0100D0044A1078431CD9B2172900D9A3
:10177000102111707047C046F00B002000220F4B63
:101780000F48BFF35F8F190004C1BFF35F8F5A602A
:10179000BFF35F8F4A60BFF35F8FDA60BFF35F8F85
:1017A0001A61BFF35F8F5A61BFF35F8F9A61BFF316
:1017B0005F8FDA6120338342E3D17047000100D0AC
:1017C000800100D0054B0648064A13600360436061
:1017D0008360C36003614361836170478080808060
:1017E00004E400E000E400E01F2318401E3B8340B7
:1017F000002905D0C02104484A0083500360704787
:10180000802201498B50FAE700E100E070B50D003D
:10181000EFF3108672B60F4A1368002BFCD0BFF3AB
:101820005F8F0D4910308A68840010590B4B984225
:1018300003D0854201D000F0D7FE07498A681551D0
:10184000BFF35F8FBFF35F8F0024024D2C6086F3E0
:10185000108870BD240100D000ED00E0C10100102F
:10186000F0B5DE4657464E464546E0B50C0083B01F
:10187000EFF3108872B6624A1368002BFCD0BFF3F6
:101880005F8F06005F4910368D68B700ED595E49DD
:1018900001968D4242D0A54253D05C4EAA1B2F2AFE
:1018A0003CD85B4B1A689B46012391461A009C4624
:1018B00082404B4613401F220240604699469040AA
:1018C0005B46802282469850BFF35F8FEFF305821C
:1018D0009346002A37D00199914201D000F084FE4E
:1018E00001202A0082439068844208D176E04B00B0
:1018F0005818810073189868844236D01A0006215F
:1019000051560029F3DA844254D04B46002B27D09D
:10191000C02251463E4B560099511960394CA3687C
:10192000DD51BFF35F8FBFF35F8F0027344D2F6012
:1019300088F3108803B0F0BCBB46B246A946A04667
:10194000F0BD0D00EAE72A0063469A43906884429E
:10195000D5D106201056130000280ADA0D0031E018
:10196000802054462A4E3450D8E7062418570028C1
:1019700021DB420011188C00A3463419A16899603C
:10198000E179D971062161569971002924DBA48877
:1019900061050C155C44F11A0C1921051D4C490D0B
:1019A00021431D4C9980131821789A00B618B17103
:1019B0002070AAE713005846002814D1FF30907118
:1019C00016489080144C164922789A719B1B5B41F3
:1019D0005943090D217098E71049E2E70624105792
:1019E00013000028C5DA0F490F48CC1A083C6202E0
:1019F0000E49560D640830430C439880DC8084E720
:101A0000240100D000ED00E0C1010010F40B002023
:101A100000E100E000E0FFFF5B13002001BDFFFFDD
:101A2000AAAA00002E0C002000F0FFFF00F8FFFF24
:101A300010B58308040003202040FF24054AC0009D
:101A40009446844081409B0063441A68A2430A4341
:101A50001A6010BD00E400E070B501240443EFF308
:101A60000581EFF3108C72B6214A1368002BFCD06D
:101A7000BFF35F8F1F4B05001F4EED1A6D416E4384
:101A8000360D1E4D72B2AE6889007658A6421CD043
:101A900006241D5795421CD012215E56964222D034
:101AA0001E241D57954220D02A215E5603249642BB
:101AB00010D0134C217822708171BFF35F8F002208
:101AC0000B4802608CF3108870BDAE680D4B7350EC
:101AD000EFE7002465002919FF240B4D8E009B19A8
:101AE0009C719D80E5E70124F4E70224F2E7C046FB
:101AF000240100D0F40B0020AAAA000000ED00E0B1
:101B00005B130020C101001001BDFFFF024B9C468A
:101B100061448900016070474000003470B5114C89
:101B2000114DAC421CD2FF260BE0FFF71BFE01005B
:101B30002000FFF7EBFFA680BFF35F8F0834AC42B5
:101B40000ED22368002BF0D1FFF70CFE010020001D
:101B5000FFF7DCFF2671BFF35F8F0834AC42F0D390
:101B600070BDC0468C0C00209C0C00200A4B1968EC
:101B7000EFF3108072B60A68002AFCD0BFF35F8FC3
:101B80001B68BFF35F8F0021196080F3108840BF8E
:101B9000002000217047C04654130020F0B5DE46F7
:101BA00057464E464546E0B587B0EFF3058303221E
:101BB00001251A40954091008B46B048B04EB14F78
:101BC00044580392029535600497029BAE484363E4
:101BD0000823E55E002D38DAA1880EB2002E00DB66
:101BE000ABE0A279002A00D0ECE00823E55E002DEE
:101BF00021DB6A0066695119CF00F3199E68DD6820
:101C0000731C01D16B1C0ED09F4801005944826A9D
:101C10000B69B71A9A1A974215D30123076A0398DA
:101C200083401F420FD0984800F03AFB8D4202DCFF
:101C3000CBD18642C9D940BF07B0F0BCBB46B24643
:101C4000A946A046F0BD0E61EDE767696A00B84697
:101C50005119CE00B04443469E68DF6800F020FB77
:101C60008F42B9DC00D1FAE0002F00DADFE0404615
:101C700041690369049842468946834200D1D1E014
:101C80000821605E5288000449461043984700903E
:101C900001910099019A0B001000134300D1C6E096
:101CA00013000A00B61A9F41002806DB764800F0B0
:101CB000F7FA009E019F36184F4142469660D76062
:101CC0000023D25E002A00DA86E753009918606983
:101CD0009A46CB00C1188B68C9689946B94200DDA5
:101CE0007AE702D1B34200D976E708239C46A444A0
:101CF000059565462281A44653462C0006E0530014
:101D00009918CD0041198D68C968A9469B18DD0056
:101D10004319B94206DC00D1ABE01C000023E25EAF
:101D2000002AECDA270040466446059E02803E8089
:101D3000A1880EB2002E00DA53E72769EFF310886E
:101D400072B638680028FCD0BFF35F8F0125A288E7
:101D50006B42216917B2A380BFF35F8F00260E602C
:101D600088F31088002F00DA3BE7200008302200BB
:101D7000814666697C00E519EB00F31899684846CE
:101D80008C460824115F9A46DD68002907DA0EE0C8
:101D9000AB4243D00023E15E2000002906DB4C006B
:101DA0006318DC003419E368AB42F1DD5346078069
:101DB00000201F5E1980002FDCDA1400A279002AAF
:101DC00000D112E70026A67127000823E15E08373C
:101DD0004B1C00D12FE70D00A046666902E007000A
:101DE0004B1C19D00A0048004118CB00F018448859
:101DF000F15E23B29146002BF1DA01235B42DC173E
:101E00008360C460AA4204D0454639802C8904808E
:101E10002A814D464B1CE5D14446E8E6A36863455C
:101E2000B8D9C3E748460969884700281BD143460B
:101E3000198826692181EFF3108C72B63768002F5C
:101E4000FCD0BFF35F8F42466088108065802569B3
:101E5000BFF35F8F00232B608CF31088BCE68642B3
:101E600000D801E7B8E64A46106851680090019131
:101E70000FE7B14500D850E754E7C04638120020BC
:101E80003C7005409D1B00100040054070B52E4C75
:101E90002569002D04D00A212C48FFF737FE70BDBC
:101EA0002B4E0321300000F0F1F9E660FFF75AFCF9
:101EB000284B03229C46D021604422700B068000F0
:101EC00020611868012360700F2060800220224981
:101ED000A16059426369A180198002311986473196
:101EE0001D83585218315A5275325C399952183242
:101EF00001319952183201319952183201319952F7
:101F0000083518329D520231183299521832013177
:101F100099521832013199521832013199521832BE
:101F2000013199521832013199520C4A0C49D4604E
:101F300001300C4C3562FFF769FC01210320FFF7EB
:101F400053FC2560A7E7C0463C0C0020541300203A
:101F50000040054040000034FFFF10003812002010
:101F60009D1B00103860054070B501000469EFF357
:101F7000108C72B620680028FCD0BFF35F8F02205F
:101F80000D5E6E0074194E69E00034180869002D6A
:101F900036DB26884E80BFF35F8F002606608CF309
:101FA0001088E360638804980133059EA2605A0498
:101FB0002061500C6661061C00281FD0B3B22804B3
:101FC000668018430A69EFF3108C72B61668002E0B
:101FD000FCD0BFF35F8F8B8823808D800D69BFF3AA
:101FE0005F8F00242C608CF310880A78CE68094932
:101FF00001348C4694406644346070BD0126DDE7B0
:10200000BFF35F8F002303608CF3108801225042DE
:10201000F3E7C0463C20000010B543890A14934200
:102020001ADD5400A2184469D300E3180469EFF3E1
:10203000108C72B62268002AFCD0BFF35F8F5A88DA
:10204000090494B2090C8A4208D00069BFF35F8F7B
:10205000002303608CF31088002010BD8022110241
:102060000C435C80012403698471BFF35F8F0022FD
:102070001A608CF31088044B01789C468C40C06831
:10208000604404600120E8E73C200000F0B5060051
:102090000F0006246442E517C646A4197D4100B529
:1020A00082B08D4214D811D000F002F922002B002A
:1020B000121A8B41002B15DC002B44D03000390064
:1020C00000F000F902B080BCB846F0BD8442EBD904
:1020D0000024002500F0ECF822002B00121A8B419E
:1020E000002BE9DD00F0E4F822002B00121A8B41EE
:1020F000002B0ADB00231549019322002B00144812
:102100000091FFF731FF0130D8D0A046290000240C
:10211000104A1148536A994204D8956AA845CDD906
:102120009942CBD10568EFF3108C72B62B68002B67
:10213000FCD0BFF35F8F0568BFF35F8F2C608CF31B
:10214000108820BFE6E7002AB8D0CBE76D1B00104F
:102150003C0C0020004005405413002070B50400E2
:102160000D0000F0A5F800196941002902DA0120EC
:1021700002494042FFF78AFF70BDC046FFFFFF7F64
:10218000F0B557464E46DE464546E0B506000F0020
:1021900085B0EFF3058399468B46002B12D0384C5F
:1021A0000020656A8D4206D3A26A6F1A791E8F419C
:1021B000B2424041384305B0F0BCBB46B246A946E6
:1021C000A046F0BD2F49CC680B782000A0460393B1
:1021D0008A4600F065F80D004146039A0400043277
:1021E0009000435830003900001BA9411A1B894553
:1021F00010DC0DD020BF224900204C6A5C45DAD3A8
:102200008D6AE71B791E8F41B54240413843D2E7C2
:102210008242EFD900F04CF832003B00121A8B4199
:10222000002B1ADB0024184D32003B00504601946D
:102230000095FFF799FE011E0FDD1148426A5A45CD
:102240001BD3836AB34216D35046FFF7E5FE0C4911
:1022500000204C6A5C45AED3D2E7094A0020536A9D
:102260005B45A8D30020916AB1424041DE1B721E3B
:10227000964130439FE75A45E6D120BFE4E7C04688
:10228000004005403C0C00206D1B001010B5024AB8
:102290000248FFF753F910BD343A0010E81100204E
:1022A0000300416A0A00986A596A8A42FAD1704763
:1022B000034B596A0A00986A596A9142FAD17047E9
:1022C00000400540064A536A9942FCD807D1044BA6
:1022D00002E05A6A914202D19A6A9042F9D8704754
:1022E00000400540F0B5DE4657464646C0B51F00E3
:1022F000334B44009C468B4621188C0064441600E6
:102300006568089A954200D26260011FCBB2984678
:10231000012B30D9C02380229D0111016219116067
:10232000284985008A46495900291AD12168802305
:102330007001E026484041465A010640A3181E603D
:10234000012930D980268022B101089E631810012E
:102350001860666054466751E0BCBB46B246A8466A
:10236000F0BD5046406900F0C3FA013043001A182E
:10237000033AFDD2DAE75D46012DCBD1C022032519
:102380009301E1180D60023DA2681542FCD0802146
:102390007301E02625684A016B400A4D1E40A318D0
:1023A000AA461E6085005E460321206870400140F9
:1023B00019600123B340A0680342FCD0C2E7C046C5
:1023C00000800040EC110020F0B583B005000E0045
:1023D00018000899170000F08BFA089A03001402FD
:1023E00031003A0028000094FFF77CFF03B0F0BDF5
:1023F00010B5802482B064000094FFF773FF02B030
:1024000010BDC046014B8000C0587047EC11002041
:10241000F8B50400214817001E000D0000F068FA0E
:102420000100380000F064FA069B226836041903A4
:102430000E43002A20DB1A4FE3195A1E93418027CE
:1024400059420A0BB9018C461303164F164A6344CE
:10245000164913603B601F000A689743FBD1212394
:102460002560A060124825182B6021680029FCDA3D
:10247000E66008242C60F8BD3F2327683B40AB4250
:10248000D9D1A1680A05170D8742D4D1EE21E3689E
:10249000CA021340B342CED1EDE7C046001BB700DD
:1024A0000040FDBF00F0004000E0004008C00040D8
:1024B000043000008023024A98000843D06270472D
:1024C00000800540002310B50100988A1A8B9047C0
:1024D00010BDC046162310B50100188802331A88B3
:1024E000904710BDF0B54F46D64646468946C0B522
:1024F000002960D0040000200A0080460330012536
:10250000142718260240084225D0012A16D0022A94
:1025100009D0216833883888984701C4431E984100
:102520000540012080462168388832889047012183
:1025300001C48C46431E9841E0440540216833881D
:102540003888984701C4431E9841054001208246BF
:10255000D044C14529D0216832883888904723006B
:1025600001C39A46431E9841616832880540388805
:10257000904751466060431E984149683388054042
:102580003888984752465060431E9841E168338826
:10259000054038889847E060431E98410540042074
:1025A0008446E0441034C145D5D12800E0BCBA4689
:1025B000B146A846F0BD0125F7E7C046AA238D2104
:1025C000054A180110604B0004480549D3600160BA
:1025D0005368002BFCDA7047004002400060024064
:1025E00000B0FA007047C04610B50148FEF78EFFF4
:1025F000583A0010F8B5254C254B9C4240D2072193
:102600000F00013B181B8608721C00251740114261
:1026100020D0012F18D0022F13D0032F0ED0042F5B
:1026200009D0052F04D0062F2BD108CC98470135AF
:1026300001CC8047013504CC9047013502CC884756
:10264000013580CCB847013508CC984728000135C2
:10265000B04215D0270004CF9047616888477B6857
:102660009847E06880472769B84762699047A16941
:102670008847EF1DE369984720340835B742E9D110
:10268000F8BD20CCA8470125CFE7C046B8390010D7
:10269000F4390010054A064B06481A60064A0749F5
:1026A000026010000B689843FBD17047BFCDFBFE62
:1026B00000E0004000F00040FE7F3C0008C0004009
:1026C000044BD86C002803D180220349D3020B604D
:1026D0007047C046000011504C201150044B054A71
:1026E00005481A600168CB018033FBD17047C046B2
:1026F00000F00040FFFFFF0108C000404022034BF4
:102700009A675A671A67DA667047C04600F0014058
:1027100010B5FFF733F810BD224B234970B55C1A92
:10272000A5102A00214E302D00D930223000920011
:1027300000F086FABC2C2FD8331907243021200052
:10274000491B1B4A08400C4219D0012813D002280B
:102750000FD003280BD0042807D0052803D0062863
:102760001DD104C3013504C3013504C3013504C3BD
:10277000013504C30135013504C3302D0CD01900D7
:10278000083504C15A604A60DA601A615A619A6178
:10279000DA612033302DF2D1064DAE6070BD04C336
:1027A0000135DEE7C001001000010010000000202C
:1027B000C101001000ED00E0002310B5294C82B0EB
:1027C000A367FFF7FBFE012227480260616C012925
:1027D000FCD10323254C23482360836B012BFCD1C0
:1027E000013300930121224A22480433FFF710FEEF
:1027F000052301210093204A2048FFF709FE00220B
:10280000022104201E4BFFF7F3FD002201210520C9
:102810001C4BFFF7EDFD0022002107201A4BFFF7AC
:10282000E7FD002200210820174BFFF7E1FD802281
:10283000D1000091002200210920134BFFF7C4FDB5
:102840000022104B00210620FFF7D2FD0420FFF7E5
:10285000D9FD0E4900F04CF801000020FFF72AFED8
:1028600002B010BD008000403CB0004030B00040DD
:10287000002F685900800240008C864700C002404B
:10288000001BB70040597307006CDC0240420F0088
:1028900001480421014B1847600C0020E52400107A
:1028A000124A936F9B0815D29066D166002905D015
:1028B000FFE7FFE7FFE7516F106F704704B5802116
:1028C0000906C2175140002800D0C84301F054F84F
:1028D000002104BDF0B5146E556E576F166FFFF7EB
:1028E000E3FF1466556657671667F0BD000000D019
:1028F000114A936F9B0813D210665166002905D0C8
:10290000FFE7FFE7FFE7516F106F704704B500283E
:1029100001D00020C04301F02FF8002104BDC046C3
:10292000F0B5146E556E576F166FFFF7E5FF14661E
:10293000556657671667F0BD000000D0132370B5C9
:102940001C78012C19D014DD1748FFF7C3FD0600D1
:102950001648FFF7BFFD164D80223100280000F019
:102960006FF9022C1CD01348FFF7ACFD124C20600D
:1029700070BD124A0E4DAA64F5E70D4D0F4A2800AE
:102980002B008030190004C15A604A60DA601A6175
:102990005A619A61DA6120338342F3D1AA64E2E793
:1029A000064AAA64DFE7C0465344000053460000CD
:1029B000200E00204C33000050120020C1290010CE
:1029C00007B5604601880A0A0230DF2AFAD1C9B287
:1029D000820804D3028840880004104300E00068A5
:1029E000014A5050039007BD200E0020514343433D
:1029F000C9188C46110C83B24B4310B4040C6143CC
:102A000092B280B2504362431C041B0C001910BCEC
:102A100059411304120CC018514161447047000021
:102A20004840414048400E4B5B6818470C4B1B68C0
:102A300018470C4A936F9B0802D2094BDB68184772
:102A4000F0B5146E556E576F166FFFF7F6FF054A17
:102A50001466556657671667F0BD014B9B681847AB
:102A600054120020000000D007B5484041404840C3
:102A700001E0C04607B54200120E03D0FF2A03D181
:102A8000420218D8C00DC0054A00120E03D0FF2A1A
:102A900003D14A020FD8C90DC9050122414005D40E
:102AA000414001D5814207BD884207BD0143491815
:102AB00001D0C043001807BD00B5FFF7DBFF01D010
:102AC000002000BD012000BDC10FC90700D5404254
:102AD000002817D0F44603B40B4B1B68984706BC7C
:102AE00081409E384042803107D20B0607D0490012
:102AF000490AC0051043084360470130F8E7490A16
:102B00008902F5E7704700005012002041000A0ECC
:102B100080231B067E2A0BDD9E3A0BDAC11740028A
:102B2000400818435242D0404900013148437047A1
:102B300000207047C00FC01801387047C0420DD345
:102B400000B540004008002100F012F8002801D430
:102B5000404200BD8020000600BD0000034BDB6941
:102B6000FC4618471CDF0D2C0010000054120020FA
:102B7000014B5B6A1847000054120020132310B564
:102B800012481C78FFF7A6FC0100012C0AD003DDD7
:102B900080220F4800F054F80E48FFF793FC0E49CE
:102BA000086010BD0A4C5422200000F049F80B4880
:102BB0006065A065E06520666066A066E0662067E7
:102BC0006067A067E0672062E061E5E753460000C8
:102BD000541200204C33000050120020E12B001052
:102BE00007B5604601880A0A0230DF2AFAD1C9B265
:102BF000820804D3028840880004104300E0006883
:102C0000014A5050039007BD541200200021C21504
:102C10008032803201D0024A104700207047000005
:102C2000CD2A000001480421014B1847700C0020F8
:102C3000E5240010014B1B6818470000700C0020B1
:102C4000014B5B6818470000700C002010B500288D
:102C500000D110BD00F006FAFBE7C04610B5094AE6
:102C60000300146884B0002C08D0009101210648AC
:102C70004A4203A9A047012004B010BD00F000FAA9
:102C80000020F9E71C1200204D2C001000BEFDE7CB
:102C900010B5FFF7FBFFC046F8B5FFF7ABFC254CBE
:102CA000254B9C4240D207210F00013B181B860890
:102CB000721C00251740114220D0012F18D0022F7E
:102CC00013D0032F0ED0042F09D0052F04D0062FC8
:102CD0002BD108CC9847013501CC8047013504CC75
:102CE0009047013502CC8847013580CCB847013583
:102CF00008CC984728000135B04215D0270004CFF2
:102D00009047616888477B689847E06880472769F3
:102D1000B84762699047A1698847EF1DE369984702
:102D200020340835B742E9D1F8BD20CCA8470125A9
:102D3000CFE7C046F4390010003A0010030010B588
:102D4000080011001A68904710BDC046F0B54E4605
:102D50004546DE465746E0B580460300407D0C0000
:102D6000160083B0002800D1C3E000210025894669
:102D7000002A00DC9DE003231800854A671E0192AB
:102D800000973040334240D0012800D19BE0022818
:102D900004D0217801250A2900D1E1E0280001357D
:102DA000002800D18CE0225C0A2A00D08BE0611E52
:102DB0000F5C0D2F00D186E0814500DBE0E04B4643
:102DC0004246C11A1768E018B847D9E0635D0A2B7C
:102DD00000D1A1E07D1C002F2AD0E25D0A2A00D19B
:102DE000AFE0B81C8346002D33D0635D0A2B00D1C1
:102DF00084E0FD1C5F46DA46002F3CD0E75D5B4671
:102E00000A2F00D197E0AE4244D06F1C002DDDD1D7
:102E100021780A29DED14246107D0028DAD14146C8
:102E200001980A680221B94690477D1C002FD4D131
:102E300020780A28D5D14346197D0029D1D14146B1
:102E400001980B6802219847B81CA9468346002DBB
:102E5000CBD125780A2DCCD14246117D0029C8D18D
:102E60004146FD1C5F460B6801980221D9469847F0
:102E7000DA46002FC2D120780A28C4D14246117DFB
:102E80000029C0D1414601980A680221A94690470D
:102E9000AE42BAD14E4505DD48464346311A1F6859
:102EA0002018B8475546645D46460D3C6242544181
:102EB000347503B0F0BCBB46B246A946A046F0BD8F
:102EC00021780A2958D0AA46514601350029D2D086
:102ED000675C0A2F97D1601E415C0D2993D0D145C4
:102EE000D0DA57464A464346B91AA0181F68B84771
:102EF000C8E7110020001B689847DAE70098425D98
:102F00000D2A00D175E7A945AADA4B46E91A4546CC
:102F1000E0182A689047A3E700994A5D0D2A00D17E
:102F200058E7A94500DB7AE74846291A45462018A4
:102F30002B68984773E70098C15C0D2900D162E7C0
:102F4000CDE70098C35D0D2B00D14AE7B94500DB02
:102F500075E74A464346B91AA0181A6890476EE7C3
:102F60004246177D002F00D018E7434602211A6819
:102F70000198A946904711E747463B7D002BA2D117
:102F80004046022103680198A94698479BE7C0463E
:102F9000183B0010F0B54546DE464E465746E0B5B4
:102FA00085B091461C0080460D00FFF781F9002393
:102FB000254A12184B41002B02DA0122234B5242C0
:102FC000234908008A4600F0DFFC01906B1C03D106
:102FD000404600F031FC0500002C2FD01D4F1E4B49
:102FE0001C68002C1FD00A201C4E834602E0246976
:102FF000002C18D02268002AF9D03168002901D0AD
:10300000A142F4D12A0041462000B8474B46002B8C
:10301000EDD05A4602A8C271C11D01222000B84756
:103020002469002CE6D1019F002F09D1280005B0AA
:10303000F0BCBB46B246A946A046F0BD084FCEE75D
:10304000504600F091FCF1E740420F00FFFFFF7F88
:10305000940C00204D2D0010141200201812002096
:103060003D2D001010B582B06B4604000022D81D23
:10307000012101230470FFF78DFF200002B010BD75
:1030800070B5040000F0D8FB012301000500012207
:103090002000FFF77FFF064B1C68002C06D06068FD
:1030A000002800D080472469002CF8D1280070BD8A
:1030B0001412002010B5024800F004F810BDC046FC
:1030C0004812002010B588B004000D220021684687
:1030D000FFF7B0FD0D22002104A8FFF7ABFD4B2345
:1030E0006A466846137004A90D2200F035FC1521CC
:1030F000082220006944FFF7A3FD08B010BDC046B8
:1031000001230121084A09481360094A03600800A5
:1031100013689843FBD1074A116080214800136867
:103120000342FCD07047C04600E0004000F0004081
:1031300008C0004000C0044010B5054B82B001003B
:10314000009300220B230348FEF71AFA02B010BDC9
:10315000A43A0010581300200300114982015018AE
:1031600010B50468D9020F4861400F4C0140101996
:10317000016001209840A0240C4B0D4918600D4BB4
:1031800008600D49E4058C46E050802362445904F0
:1031900013680B42FCD18022D100605010BDC046A4
:1031A000100000500178000010100050043400504E
:1031B00014340050440400000C000050F0B54E469A
:1031C0004546DE4657468146E0B5062083B0884630
:1031D000FFF718F94B460500494602205A68464653
:1031E00080237A4C02404C4404312060F70D0224C5
:1031F0000092019176025800002F49D1B54247D381
:1032000032003B00042492197B41002B40D19542AF
:103210003ED392197B4102342100002B38D19542D4
:1032200036D392197B410234002B31D195422FD3F2
:1032300092197B410C1D002B2AD1954228D392195B
:103240007B418C1D002B23D1954221D392197B41C8
:103250000234002B1CD195421AD392197B410234BF
:10326000002B15D1954213D392197B410234002BC8
:103270000ED195420CD392197B410234002B07D119
:10328000954205D310310C0092197B418142BCD18B
:10329000802227023E1B5300310028009A46FF2758
:1032A000FFF726FB404571D8FF20361B82463100D0
:1032B0002800FE27FFF71CFB404567D8FE21361B80
:1032C0008A4628003100FFF713FB013F361B4045BB
:1032D0005CD8BA463100013F2800BB46FFF708FB27
:1032E000404553D8361B31002800BA46013FFFF74E
:1032F000FFFA40454AD8BA465F46361B31002800DF
:10330000023FFFF7F5FA404540D85A46361B3100D8
:103310002800BA46D71EFFF7EBFA404536D85B4681
:10332000361B31002800BA461F1FFFF7E1FA40455F
:103330002CD85846361BBA463100471F2800FFF7E5
:10334000D7FA404522D85946361BBA4628008F1F67
:103350003100FFF7CDFA404518D8BA465F46361B14
:1033600031002800073FFFF7C3FA40450ED8361B4F
:1033700031002800BA46013FFFF7BAFA404505D8A8
:10338000361B012FA5D12100002202E051466143E6
:103390003A024B46FF2080261C611C6807025440FD
:1033A00072013C404A4414608024A0018446019B81
:1033B000009F634428001F60FFF79AFA03B0F0BC37
:1033C000BB46B246A946A046F0BDC0460430000048
:1033D000174B70B5C21804008020531E9A41450255
:1033E000AC461448144B120462441A60026013483D
:1033F000150003689D43FBD12000FFF7DFFE022389
:103400000F496268651807212B6025681A404D40F6
:10341000C831294080256D01651929600949651861
:103420002A60094A03219446644421602B6070BDE0
:103430000040FCBF00F0004000E0004008C0004039
:10344000043000000420000024200000F0B54546B0
:103450005746DE464E46E0B5070085B00092002292
:103460001C0002930EAB18783B6801901098DA6646
:103470000132596080460F9DDA66002C00DCA3E023
:10348000013CA346002D02D00121A8473B685A46C3
:103490003E79B002002A00D170E000240021A2464B
:1034A0005446009E325D002402430A431A61002DF7
:1034B00009D100E03B6810265046596B0E420ED1F0
:1034C000002D08D0824600214046A8470443E4B2BC
:1034D0000028EFD075E010215A6B1142FCD08021FA
:1034E0005A58002A1DD1002C1DD183454BD0029C77
:1034F0000130844239D0002D06D1584541D0009A80
:103500000024115C1961D8E7824601214046A84792
:10351000DA4514D05346009E3C68F05C20610024DC
:10352000D1E70124596D802189008A469446002DF7
:1035300032D15246596B1142FBD062460CE03B68D7
:1035400000200126019A56407102A9E710971099B0
:10355000474648468846039A196E002CC7D0002A71
:1035600035D0D30733D4120731D50199397105B05D
:10357000F0BCBB46B246A946A046F0BD00218A4633
:10358000DFE78246DCE701990029B0D1802189007C
:103590008A469446002DCCD043468146B8460392D5
:1035A0001F00109305E0414650460B685A6B0242DB
:1035B000CCD100213800A8470443E4B20028F2D05F
:1035C000474602246042D0E700210800CDE70125EC
:1035D0006A421000C9E7C046F0B54E464546574618
:1035E000DE468146E0B54E4685B002920EAA1078BE
:1035F00000223768109DFA6679600121A8460F9C69
:103600000190F966002B51DD8026581E7700BA46DE
:1036100083460025802740260393002C02D00121F9
:103620004046A0474B461A68516F1029FCD0002332
:10363000002D02D1484603799B025D4530D05046AB
:10364000034313610BE0002C06D000214046A04745
:1036500000282DD14A461268916F002918D1D359FC
:10366000536B1E42EFD0536D002C0ED0002140460C
:10367000A047C5434F462800019E3E7105B0F0BCEF
:10368000BB46B246A946A046F0BD01256D42F1E712
:103690001069029B039A58550135AA42BDD1E9E74A
:1036A00001210198414049020B43C8E70025E1E7A9
:1036B00002246542DEE7C046F8B5DE4657464E4670
:1036C00045468346E0B505200C00FEF79BFE06004C
:1036D000600821008019FFF70BF9430098468044E9
:1036E000070005214046FFF703F91F4B3A1A750002
:1036F00081469246A8199C4231D81C49FFF7F8F838
:10370000451C5C460020802224685301E066216845
:103710000430414002300840E11808604A465046F3
:103720004346E061012022624F2B03D950214046DD
:10373000FFF7DEF8A0216050E06F0D4B45400120FF
:103740002D042A0CE1180A603900E0663000FFF70A
:10375000CFF8F0BCBB46B246A946A046F8BD054925
:10376000FFF7C6F8451CCCE73F420F008096980053
:103770007C10000040787D010F4A70B5841A631EEA
:103780009C410E4DE2000E4B08320E4C1A602A602E
:10379000150023689D43FBD166240268FF34057140
:1037A000D5661460633CD563FF3C956388355451FE
:1037B000FFF782FF70BDC046800C002000F0004083
:1037C00000E0004008C0004030B585B008AC257866
:1037D0000024009502940194FFF738FE05B030BD37
:1037E00030B585B008AC257800240095029401948A
:1037F000FFF7F2FE05B030BD10B501000023002236
:10380000002000F047F810BD70B5074C074D641B51
:10381000A41005D0013CA300EB589847002CF9D127
:1038200000F098F870BDC046003A0010003A001051
:103830007047C0467047C04610B583070AD00300E2
:10384000032102E001330B4205D01A78002AF9D196
:10385000181A10BD030019680C4A0D4C8A188A43C7
:1038600022420FD15968094A04338A188A432242F6
:1038700008D15968054A04338A188A432242F1D094
:1038800000E001331A78002AFBD1E1E7FFFEFEFEDB
:1038900080808080F0B5D6464F4646469846244BF9
:1038A000C0B5060018689A460F009146FFF7C0FFA2
:1038B000204B1D68002D32D053466C6818681F2CB1
:1038C00030DC002E0CD1631C0234A4006B60675105
:1038D000FFF7B0FF0020E0BCBA46B146A846F0BDF5
:1038E00049468822A300EB189950C42149008C4610
:1038F000AC446146873AA24009689146114362464A
:1039000011608421424649005A50022EDBD1290021
:103910004A468D31FF310B6813430B60D3E7064DE8
:103920001D60C9E7FFF786FF01204042D3E7C0468C
:10393000880C0020500F0020540F0020034B10B5BE
:10394000002B02D00248FFF757FF10BD0000000017
:1039500009380010F8B5C04601B40248844601BCDD
:10396000604700BF2D0A002001B40248844601BC14
:10397000604700BF3D09002001B40248844601BCF5
:10398000604700BF690B002001B40248844601BCB7
:10399000604700BFE108002001B40248844601BC32
:1039A000604700BFC100002001B40248844601BC4A
:1039B000604700BFB102002095260010C12600100C
:1039C00091280010252C00103D2900107D2B00109F
:1039D000B9270010DD260010FD2600101127001069
:1039E0001D1B0010192700108D1E0010E52500106A
:1039F000C51700103D390010B530001089020010C5
:103A000000000000000000000000000000000000B6
:103A100000000000150300100A0B0C0D0E0F000033
:103A20000A2A2A2A2050414E4943202A2A2A0A00DB
:103A30000A000000486172647761726520616C6100
:103A4000726D20256420616C726561647920636CFD
:103A500061696D6564000000486172642061737380
:103A60006572740052656C6561736500626F6F7496
:103A7000325F77323571303830000000322E322E0E
:103A8000300000007069636F000000006861726DB3
:103A90006F6E697A6572000053657020203920329C
:103AA000303235004E6F20444D41206368616E6EA8
:103AB000656C732061726520617661696C61626C0E
:103AC0006500000006005250D3F07542643A0010C1
:103AD00006005250E182887F6C3A00100600525076
:103AE000ABB360537C3A001006005250BBFF3CB6AB
:103AF000843A001006005250861C03028C3A0010D3
:103B0000060052505422A29D983A001005005250CF
:0C3B1000DE65F468144700100D0A000088
:103B1C00C43A0010D03A0010DC3A0010E83A001019
:0C3B2C00F43A0010003B00100C3B0010AD
:103B3800F8B5DE4657464E464546E021E0B5F02743
:103B48000400C801F821644A644D136803402B60DF
:103B580016683B03480373400340F8202B60604D10
:103B6800604F2E68604B614977401F40C5010F6068
:103B78000120156100F04CFDA422550060554A272C
:103B8800012000F045FDFF37E055A520635D584949
:103B9800DE028A460E4057499B0131434600A25D2A
:103BA800123210012218A020C005844652486344EE
:103BB80018605A6008229A60D9600123615D9146B5
:103BC8008B404E48012103600B2000F029FD0B209B
:103BD8004B4900F015FD4946A4234A4A4A48D150AA
:103BE8004A4B016019000420984600F009FDFF21A6
:103BF800042000F0F5FC0121042000F011FDE75D30
:103C08005046F902BB01A027414A01400A43F90581
:103C18008B46002002213F4F5B4418605F60002004
:103C280099601A614A463C4B82461A6001301E234D
:103C38008146FF33E75C032F14D0E15C0229F9D1F8
:103C4800A42508262F4C0021042000F0E9FC665129
:103C58004146042000F0F4FCF0BCBB46B246A9463D
:103C6800A046F8BD5246E2544A46605DA02782400D
:103C78002A48F9050A50A020A25D615D1232170199
:103C8800E2198F01C1058C464A216744FA62A25D98
:103C9800FF3150329700625CE01997016744F8637E
:103CA800F8200D4A4703116839400F000B490F608F
:103CB8001068E0278446F801674607400F60F02740
:103CC800126810003A03F8274240780302400A605D
:103CD8000821114A1160ADE700C0044000D004403B
:103CE80008C00440090000010F00000F08D004407C
:103CF800FF7FE0FF250012000CC0044004240050A0
:103D08002D05001000000540A8200540A90200105C
:103D18001500080008C0034000E004400C0400003F
:103D2800F0B557464E464546DE46D54BE0220400E0
:103D380018680323E0B5D34ED34D3768D101BC468C
:103D4800013789B008403B40286006960493FA077B
:103D580000D466E2D0268020330642045A61BB07AD
:103D680000D458E2D0238022180697044761012521
:103D7800A8460122A5214346A42715004900665CF0
:103D8800981B60547800235C9D40A0232F00BF4DF2
:103D9800DB055F51635C205C12331D016719A025A8
:103DA8008301E80581464A2560464B44DF62615C31
:103DB800FF3550318F00615DE3198F014F44FB637C
:103DC800C30F3701E519C1180A402900D21A802308
:103DD8002F31FF31088805929A00831817009AB28C
:103DE800930ADA0083188005820DA9488246524456
:103DF800504242419200A7489B189AB24243D20CC3
:103E08000A80902149008146685A0192C21993B2EA
:103E18009F0AFA009E4F8218BB468005830D5B44BB
:103E2800584243414F469800121893B27B43D80C2E
:103E380068520390280080222930FF3001889300BF
:103E4800CF181A00BBB29F0AFB00CB188905890D51
:103E580059440F00794279418F004946DB199FB2D6
:103E68004F43FF0C07800638018802978B189FB2D2
:103E7800BB0ADF00CB198905890D59440F00794227
:103E880079418F00DB194F4699B27943CB0C0380F7
:103E9800952041008A46AA44574638882D3581180E
:103EA8008FB2BA0A7A4FD100BB4642188005810DFD
:103EB80059440F00784278414F468100521890B219
:103EC80052467843059FC10C73481180BA00914649
:103ED800824612585B181701B81A019AFF35170164
:103EE800BB464A46574658440011D0518020D25903
:103EF800171102014846D71BEC2220188750029A56
:103F0800664F9146BA46039A4A4452445210574261
:103F18003AB2F627E253614A0B3F93465B445B1083
:103F28005A4213B2F422A352E8239A46E35C0A3AAF
:103F3800DBB2A354013AA35CDBB2E355D0273B06BE
:103F48005F6899467B074746DB0F7B405746DBB2E5
:103F5800E3554B465F683B074746DB0F7B40DBB2C8
:103F6800A35462464E4B9700FA58B84617002D885E
:103F78002A01FD01ED1B52194546D711EF50EB58A8
:103F880065461F113635E423AA001751FA22E7586F
:103F9800E5580123AC469500AF4200DC0023414FB1
:103FA8000122BC4500DC00221C279D18EBB23E4DC7
:103FB800FF372A68E355002A02D08E277A00A354D7
:103FC8008D235F00E25D002A00D077E037498B46F9
:103FD800236820001A689047D2203100235A802095
:103FE80050318F0059420BB20A1C0001834200DB9A
:103FF8002F4A304910B2884200DA0A1C802319017E
:104008008A46C020524483011343D4223B53A15A09
:10401800B6004842A719433703B2FF37021C53457D
:1040280001DB234E321C234811B2814200DA021C04
:1040380080231E01B1461E261F484A44104338807B
:104048000699049FFF360F60A35DDAB2012B00D1F9
:1040580002E15E460F201C233768FF3301373840E2
:104068003060E25C0133E2542C68002C01D0013C42
:104078002C6009B0F0BCBB46B246A946A046F0BDCC
:1040880000C00440440F002000D004400C0400008D
:1040980001FEFFFF9DF007002C0F002000F0FFFF3E
:1040A800340F0020B80B0000E00B0020240F002084
:1040B800FF07000000F8FFFF00B0FFFF7E4B9B46A4
:1040C8001B68002B00D1B2E01F000E3F012F70D8F3
:1040D80082225700C259B846E127FF00BA46019F1D
:1040E8005200B946D145BF417F42BC46474662446B
:1040F800C2510F2B5DD1FC205145894123584F42B5
:104108005A00D31980222350029B510099466758C0
:104118007A00D145BF417B428627D2186250E822F7
:104128007B009A46E758A25C7B009F18524688237A
:10413800A7505F00BC46E359233AA25C5F00BB1856
:1041480062465E4FA35020583A68131A581E83419E
:104158008A20DFB24300E75461581623571A791EA4
:104168008F414146F8B2FF33E0546758D01B411ED7
:1041780088418B21C3B284204F00E3554300E158A6
:104188001823571A791E8F415146F8B2FF33E0546D
:104198006758D01B411E88418C21C3B260464F002E
:1041A800E3552358991A4A1E91411A22CFB2FF3279
:1041B800A7548A225700E35DD9B2002B01D1F4330A
:1041C800E1521620FF30275CFAB2002F01D1F637F2
:1041D800E2538B235900605CC7B2002801D1EC3050
:1041E80027501822FF32A35CD9B2002B01D1F0333B
:1041F800E1508C204700E35DDAB2002B01D1E833AF
:10420800E2541A21FF31605CC7B2002800D0DFE613
:10421800E9302754DCE6D02780253906AE048E61C4
:10422800A5E5D020802102064D04956197E5244F2D
:104238002448B8460168244B4B4343440360D80FD5
:10424800002B33DBD022102311068B611B4F3B68F8
:10425800590008183860ACE70827F8211B480760A0
:104268001B484F0303681B493B400B600368E02071
:10427800C7013B400B60A4214B00E05CA0278240B3
:104288001549F8054250E05C00F0B2F94A22FF32C5
:10429800A05C00F0ADF900210B2000F0C1F90B2063
:1042A8000E4900F0CDF90223A355D2E6D0271022FB
:1042B80039064A61CAE7C046240F0020280F0020AB
:1042C8005FF36E3CE40B00200D66190000F004401B
:1042D80000C0044000D004400C0400002D0500106C
:1042E800F0B54F46D6464646C0B51F00D023904687
:1042F800002204001806016891468A460BE0BFF3C5
:104308005F8F494619608CF310884046390000F0E9
:104318008FF900281AD12668EFF3108C72B6356829
:10432800002DFCD0BFF35F8F207923687F28E6D962
:1043380057462771BFF35F8F00241C608CF31088E9
:104348000120E0BCBA46B146A846F0BD0020F8E717
:1043580070B501000468EFF3108C72B6206800286D
:10436800FCD0BFF35F8F04254C570868002C11DB85
:10437800BFF35F8F002505608CF31088D0200025DF
:10438800000645570020A54200D170BD0800FFF780
:10439800A7FFFAE7D0231A0614680C71BFF35F8FE2
:1043A800002101608CF310880120EEE70268EFF32A
:1043B800108172B61368002BFCD0BFF35F8FFF2209
:1043C80002710068BFF35F8F0023036081F31088D8
:1043D80040BF704730B5134D2B78002B20D180207B
:1043E800114A124C43051968D1505868191D50508C
:1043F800081D996811501900D8680C315050186977
:104408000431505058690431505098690431505063
:10441800D869043120335050A342E4D101232B70D2
:1044280030BDC0465A130020E810001000010010EB
:1044380010B5014B984710BDE9100020064B5A688B
:10444800026099684160DA6882601969C1605A69D6
:1044580002619B6943617047000002400268064B95
:104468005A60416899608268DA60C16819610269B6
:104478005A6140699861704700000240C022054BAC
:104488000230196800024840930003491840086048
:104498007047C0460C8001400C900140F0B5DE46E4
:1044A80057464E4645460023E0B589B001900E00B8
:1044B800988A140045491A8B9A4690475146814676
:1044C80050460D8B808A4249A847534641491D8B67
:1044D8000700988AA8478046FFF77CFF02A8FFF7E5
:1044E800ADFFC847B8470020FFF7C8FF251E22D0F8
:1044F800C02008274105BC46022062468B6A1A4044
:1045080018423ED0631B002D2FD1002A11D1002C58
:1045180011D00223C0229A4657050633BB46994656
:104528005A465746936A4A461A401F4241D0002AC3
:10453800F6D0002C2FD10120FFF7A0FFC047FFF7CE
:1045480077FF02A8FFF78AFF09B0F0BCBB46B24666
:10455800A946A046F0BD002C2DD1C0225705BA6A45
:10456800170008223A40BF072CD50D2B1AD9002A6C
:10457800F1D1C0225705BA6A170008223A40BF078E
:10458800F3D4002A04D12F002743002FB5D1D2E756
:104598002F00002CF9D0013C27000A6E2F433270FF
:1045A8000136F2E7019F013D3B7801370B66019721
:1045B800E7E70025E5E7C0235A05176E013C377089
:1045C80001369AE72F00002ADFD1DCE749460000D0
:1045D80045580000464300007047C04600000000F0
:1045E80001B40248844601BC604700BF311A00107C
:1045F80001B40248844601BC604700BF593100102D
:1046080001B40248844601BC604700BF0D18001081
:1046180001B40248844601BC604700BF393100102C
:1046280001B40248844601BC604700BFE917001086
:1046380001B40248844601BC604700BF81210010D4
:1046480001B40248844601BC604700BF61180010ED
:104658000800000001000000000004000000040041
:104668001000000000000000000001000000000031
:104678000000000000000200000000000000000030
:104688000000030000000000000000000000FF0020
:104698000000000001B5486801318E4600477046A9
:1046A80009380149884701BD591A00100000000067
:1046B80000000000000000000000000000000000F2
:1046C800A00C002000000000000000000000000016
:1046D800503300004C3300005433000052330000C4
:1046E8004D5300004D430000533400004334000094
:1046F8000040044000000000E4100020000000001A
:0C470800000000000000000000000000A5
:04000005100001E9FD
:00000001FF
